:020000040800F2
:1020000000800120553802089D3802089D380208DA
:102010009D3802089D3802089D3802080000000023
:102020000000000000000000000000009D380208D1
:102030009D380208000000009D380208653F020834
:102040009D3802089D3802089D3802089D38020814
:102050009D3802089D3802089D3802089D38020804
:102060009D3802089D3802089D3802089D380208F4
:102070009D3802089D3802089D3802089D380208E4
:102080009D3802089D3802089D380208013C02086C
:102090000D3C02089D3802089D3802089D38020850
:1020A0009D3802089D3802089D3802089D380208B4
:1020B0009D3802089D3802089D380208B1E70108E2
:1020C000C9E701088DE80108A5E801089D38020864
:1020D0009D380208000000009D3802089D38020863
:1020E0009D3802089D380208193C02089D380208F4
:1020F0009D3802089D3802089D3802089D38020864
:102100009D3802089D3802089D3802089D38020853
:102110009D3802089D3802089D3802089D38020843
:102120009D3802089D3802089D3802089D38020833
:1021300010F8012B11F8013B012A28BF9A42F7D071
:10214000D01A7047034613F8012B002AFBD1181A46
:10215000013870470000000000000000000000008F
:1021600001F0FF01102A2BDB10F0070F08D010F848
:10217000013B013A8B422DD010F0070F42B3F6D14C
:10218000F0B441EA012141EA014122F007047FF065
:1021900000070023F0E80256083C85EA010586EABC
:1021A000010685FA47F5A3FA87F586FA47F6A5FAF8
:1021B00087F68EB9EED1F0BC01F0FF0102F0070204
:1021C00032B110F8013B013A83EA010313B1F8D1AF
:1021D0000020704701387047002D06BF3546033890
:1021E000073815F0010F07D1013015F4807F02BFC9
:1021F000013015F4C03F0130F0BC0138704700BF1A
:1022000081F0004102E000BF83F0004330B54FEAA7
:1022100041044FEA430594EA050F08BF90EA020F14
:102220001FBF54EA000C55EA020C7FEA645C7FEAA7
:10223000655C00F0E2804FEA5454D4EB5555B8BFCA
:102240006D420CDD2C4480EA020281EA030382EA3B
:10225000000083EA010180EA020281EA0303362DCD
:1022600088BF30BD11F0004F4FEA01314FF4801CA0
:102270004CEA113102D0404261EB410113F0004FB2
:102280004FEA03334CEA133302D0524263EB430369
:1022900094EA050F00F0A780A4F10104D5F1200E07
:1022A0000DDB02FA0EFC22FA05F2801841F1000162
:1022B00003FA0EF2801843FA05F359410EE0A5F136
:1022C00020050EF1200E012A03FA0EFC28BF4CF067
:1022D000020C43FA05F3C01851EBE37101F000451D
:1022E00007D54FF0000EDCF1000C7EEB00006EEB2A
:1022F0000101B1F5801F1BD3B1F5001F0CD34908B4
:102300005FEA30004FEA3C0C04F101044FEA44520A
:1023100012F5800F80F09A80BCF1004F08BF5FEA91
:10232000500C50F1000041EB045141EA050130BD71
:102330005FEA4C0C404141EB0101013C28BFB1F583
:10234000801FE9D291F0000F04BF01460020B1FACE
:1023500081F308BF2033A3F10B03B3F120020CDAA1
:102360000C3208DD02F1140CC2F10C0201FA0CF07F
:1023700021FA02F10CE002F11402D8BFC2F1200CE4
:1023800001FA02F120FA0CFCDCBF41EA0C0190409A
:10239000E41AA2BF01EB0451294330BD6FEA0404E3
:1023A0001F3C1CDA0C340EDC04F11404C4F12002CE
:1023B00020FA04F001FA02F340EA030021FA04F3E0
:1023C00045EA030130BDC4F10C04C4F1200220FA37
:1023D00002F001FA04F340EA0300294630BD21FA75
:1023E00004F0294630BD94F0000F83F4801306BF3B
:1023F00081F480110134013D4EE77FEA645C18BF2F
:102400007FEA655C29D094EA050F08BF90EA020FC5
:1024100005D054EA000C04BF1946104630BD91EABD
:10242000030F1EBF0021002030BD5FEA545C05D1C0
:102430004000494128BF41F0004130BD14F58004FF
:102440003CBF01F5801130BD01F0004545F0FE4173
:1024500041F470014FF0000030BD7FEA645C1ABFA8
:10246000194610467FEA655C1CBF0B46024650EADF
:10247000013406BF52EA033591EA030F41F400210B
:1024800030BD00BF90F0000F04BF0021704730B591
:102490004FF4806404F132044FF000054FF0000166
:1024A00050E700BF90F0000F04BF0021704730B527
:1024B0004FF4806404F1320410F0004548BF4042FC
:1024C0004FF000013EE700BF42004FEAE2014FEA51
:1024D00031014FEA02701FBF12F07F4393F07F4F2C
:1024E00081F06051704732F07F4208BF704793F02F
:1024F0007F4F04BF41F40021704730B54FF4607442
:1025000001F0004521F000411CE700BF50EA010244
:1025100008BF704730B54FF000050AE050EA0102ED
:1025200008BF704730B511F0004502D5404261EB5D
:1025300041014FF4806404F132045FEA915C3FF49E
:10254000D8AE4FF003025FEADC0C18BF03325FEA3B
:10255000DC0C18BF033202EBDC02C2F1200300FAEC
:1025600003FC20FA02F001FA03FE40EA0E0021FA11
:1025700002F11444BDE600BF70B54FF0FF0C4CF4FF
:10258000E06C1CEA11541DBF1CEA135594EA0C0FB1
:1025900095EA0C0F00F0DEF82C4481EA030621EAEC
:1025A0004C5123EA4C5350EA013518BF52EA033527
:1025B00041F4801143F4801338D0A0FB02CE4FF0D9
:1025C0000005E1FB02E506F00042E0FB03E54FF009
:1025D0000006E1FB03569CF0000F18BF4EF0010E01
:1025E000A4F1FF04B6F5007F64F5407404D25FEAFD
:1025F0004E0E6D4146EB060642EAC62141EA5551B0
:102600004FEAC52040EA5E504FEACE2EB4F1FD0CF1
:1026100088BFBCF5E06F1ED8BEF1004F08BF5FEA6F
:10262000500E50F1000041EB045170BD06F0004621
:1026300046EA010140EA020081EA0301B4EB5C04CE
:10264000C2BFD4EB0C0541EA045170BD41F48011C6
:102650004FF0000E013C00F3AB8014F1360FDEBFEB
:10266000002001F0004170BDC4F10004203C35DAC7
:102670000C341BDC04F11404C4F1200500FA05F34A
:1026800020FA04F001FA05F240EA020001F00042EB
:1026900021F0004110EBD37021FA04F642EB060161
:1026A0005EEA430E08BF20EAD37070BDC4F10C048B
:1026B000C4F1200500FA04F320FA05F001FA04F24F
:1026C00040EA020001F0004110EBD37041F100013B
:1026D0005EEA430E08BF20EAD37070BDC4F1200546
:1026E00000FA05F24EEA020E20FA04F301FA05F2AE
:1026F00043EA020321FA04F001F0004121FA04F256
:1027000020EA020000EBD3705EEA430E08BF20EA25
:10271000D37070BD94F0000F0FD101F0004640005F
:1027200041EB010111F4801F08BF013CF7D041EAE1
:10273000060195F0000F18BF704703F000465200E5
:1027400043EB030313F4801F08BF013DF7D043EAB6
:102750000603704794EA0C0F0CEA135518BF95EA6C
:102760000C0F0CD050EA410618BF52EA4306D1D1F3
:1027700081EA030101F000414FF0000070BD50EA12
:10278000410606BF1046194652EA430619D094EA9C
:102790000C0F02D150EA013613D195EA0C0F05D186
:1027A00052EA03361CBF104619460AD181EA0301DA
:1027B00001F0004141F0FE4141F470014FF0000092
:1027C00070BD41F0FE4141F4780170BD70B54FF02D
:1027D000FF0C4CF4E06C1CEA11541DBF1CEA1355AD
:1027E00094EA0C0F95EA0C0F00F0A7F8A4EB05048F
:1027F00081EA030E52EA03354FEA013100F0888086
:102800004FEA03334FF0805545EA131343EA12634E
:102810004FEA022245EA111545EA10654FEA002603
:102820000EF000419D4208BF964244F1FD0404F5BC
:10283000407402D25B084FEA3202B61A65EB030518
:102840005B084FEA32024FF480104FF4002CB6EBD5
:10285000020E75EB030E22BFB61A754640EA0C0055
:102860005B084FEA3202B6EB020E75EB030E22BF95
:10287000B61A754640EA5C005B084FEA3202B6EBD6
:10288000020E75EB030E22BFB61A754640EA9C0095
:102890005B084FEA3202B6EB020E75EB030E22BF65
:1028A000B61A754640EADC0055EA060E18D04FEA23
:1028B000051545EA16754FEA06164FEAC30343EAC3
:1028C00052734FEAC2025FEA1C1CC0D111F4801F90
:1028D0000BD141EA00014FF000004FF0004CB6E789
:1028E00011F4801F04BF01430020B4F1FD0C88BF28
:1028F000BCF5E06F3FF6AFAEB5EB030C04BFB6EB33
:10290000020C5FEA500C50F1000041EB045170BD25
:102910000EF0004E4EEA113114EB5C04C2BFD4EB52
:102920000C0541EA045170BD41F480114FF0000ED6
:10293000013C90E645EA060E8DE60CEA135594EA52
:102940000C0F08BF95EA0C0F3FF43BAF94EA0C0F55
:102950000AD150EA01347FF434AF95EA0C0F7FF4CA
:1029600025AF104619462CE795EA0C0F06D152EA1E
:1029700003353FF4FDAE1046194622E750EA410602
:1029800018BF52EA43067FF4C5AE50EA41047FF413
:102990000DAF52EA43057FF4EBAE12E74FF0FF3C78
:1029A00006E000BF4FF0010C02E000BF4FF0010C49
:1029B0004DF804CD4FEA410C7FEA6C5C4FEA430CC2
:1029C00018BF7FEA6C5C1BD001B050EA410C0CBF11
:1029D00052EA430C91EA030F02BF90EA020F002073
:1029E000704710F1000F91EA030F58BF994208BFDA
:1029F00090422CBFD8176FEAE37040F00100704797
:102A00004FEA410C7FEA6C5C02D150EA013C07D1ED
:102A10004FEA430C7FEA6C5CD6D152EA033CD3D038
:102A20005DF8040B704700BF8446104662468C4632
:102A30001946634600E000BF01B5FFF7B7FF002865
:102A400048BF10F1000F01BD4DF808EDFFF7F4FF8E
:102A50000CBF012000205DF808FB00BF4DF808ED19
:102A6000FFF7EAFF34BF012000205DF808FB00BF3C
:102A70004DF808EDFFF7E0FF94BF012000205DF85E
:102A800008FB00BF4DF808EDFFF7CEFF94BF012013
:102A900000205DF808FB00BF4DF808EDFFF7C4FF0C
:102AA00034BF012000205DF808FB00BF4FEA410C55
:102AB0007FEA6C5C02D150EA013C0AD14FEA430C38
:102AC0007FEA6C5C02D152EA033C02D14FF0000075
:102AD00070474FF0010070474FEA410212F50012B3
:102AE00015D211D56FF47873B3EB625212D94FEA55
:102AF000C12343F0004343EA505311F0004F23FA3F
:102B000002F018BF404270474FF00000704750EA93
:102B1000013005D111F0004008BF6FF00040704750
:102B20004FF00000704700BF80F0004002E000BF9F
:102B300081F0004142001FBF5FEA410392EA030FA8
:102B40007FEA226C7FEA236C6AD04FEA1262D2EBF2
:102B50001363C1BFD218414048404140B8BF5B42F7
:102B6000192B88BF704710F0004F40F4000020F090
:102B70007F4018BF404211F0004F41F4000121F0A6
:102B80007F4118BF494292EA030F3FD0A2F10102F0
:102B900041FA03FC10EB0C00C3F1200301FA03F12E
:102BA00000F0004302D5494260EB4000B0F5000F51
:102BB00013D3B0F1807F06D340084FEA310102F110
:102BC0000102FE2A51D2B1F1004F40EBC25008BFC2
:102BD00020F0010040EA03007047490040EB00008C
:102BE000013A28BFB0F5000FEDD2B0FA80FCACF18D
:102BF000080CB2EB0C0200FA0CF0AABF00EBC250BA
:102C000052421843BCBFD0401843704792F0000FA7
:102C100081F4000106BF80F400000132013BB5E7FA
:102C20004FEA41037FEA226C18BF7FEA236C21D070
:102C300092EA030F04D092F0000F08BF08467047D5
:102C400090EA010F1CBF0020704712F07F4F04D1A3
:102C5000400028BF40F00040704712F100723CBFB6
:102C600000F50000704700F0004343F0FE4040F4E0
:102C7000000070477FEA226216BF08467FEA23639E
:102C80000146420206BF5FEA412390EA010F40F489
:102C9000800070474FF0000304E000BF10F00043D5
:102CA00048BF40425FEA000C08BF704743F09643BC
:102CB00001464FF000001CE050EA010208BF7047D7
:102CC0004FF000030AE000BF50EA010208BF70475E
:102CD00011F0004302D5404261EB41015FEA010C73
:102CE00002BF84460146002043F0B64308BFA3F16B
:102CF0008053A3F50003BCFA8CF2083AA3EBC2534D
:102D000010DB01FA02FC634400FA02FCC2F120026B
:102D1000BCF1004F20FA02F243EB020008BF20F0A2
:102D20000100704702F1200201FA02FCC2F1200208
:102D300050EA4C0021FA02F243EB020008BF20EAFD
:102D4000DC7070474FF0FF0C1CEAD0521EBF1CEA2B
:102D5000D15392EA0C0F93EA0C0F6FD01A4480EA19
:102D6000010C400218BF5FEA41211ED04FF0006302
:102D700043EA501043EA5111A0FB01310CF000402E
:102D8000B1F5000F3EBF490041EAD3715B0040EA54
:102D9000010062F17F02FD2A1DD8B3F1004F40EB24
:102DA000C25008BF20F00100704790F0000F0CF0F7
:102DB000004C08BF49024CEA502040EA51207F3ABB
:102DC000C2BFD2F1FF0340EAC250704740F4000096
:102DD0004FF00003013A5DDC12F1190FDCBF00F087
:102DE00000407047C2F10002410021FA02F1C2F135
:102DF000200200FA02FC5FEA310040F1000053EAD1
:102E00004C0308BF20EADC70704792F0000F00F01E
:102E1000004C02BF400010F4000F013AF9D040EA24
:102E20000C0093F0000F01F0004C02BF490011F4B8
:102E3000000F013BF9D041EA0C018FE70CEAD153B6
:102E400092EA0C0F18BF93EA0C0F0AD030F0004C36
:102E500018BF31F0004CD8D180EA010000F00040EA
:102E6000704790F0000F17BF90F0004F084691F0A8
:102E7000000F91F0004F14D092EA0C0F01D14202E2
:102E80000FD193EA0C0F03D14B0218BF084608D1AB
:102E900080EA010000F0004040F0FE4040F40000F5
:102EA000704740F0FE4040F4400070474FF0FF0C88
:102EB0001CEAD0521EBF1CEAD15392EA0C0F93EACF
:102EC0000C0F69D0A2EB030280EA010C49024FEA21
:102ED000402037D04FF0805343EA111143EA1013DA
:102EE0000CF000408B4238BF5B0042F17D024FF492
:102EF000000C8B4224BF5B1A40EA0C00B3EB510F6D
:102F000024BFA3EB510340EA5C00B3EB910F24BF55
:102F1000A3EB910340EA9C00B3EBD10F24BFA3EBDA
:102F2000D10340EADC001B0118BF5FEA1C1CE0D1A2
:102F3000FD2A3FF650AF8B4240EBC25008BF20F055
:102F4000010070470CF0004C4CEA50207F32C2BFA9
:102F5000D2F1FF0340EAC250704740F400004FF046
:102F60000003013A37E792F0000F00F0004C02BF77
:102F7000400010F4000F013AF9D040EA0C0093F041
:102F8000000F01F0004C02BF490011F4000F013B9B
:102F9000F9D041EA0C0195E70CEAD15392EA0C0F03
:102FA00008D142027FF47DAF93EA0C0F7FF470AF3B
:102FB000084676E793EA0C0F04D14B023FF44CAF7E
:102FC00008466EE730F0004C18BF31F0004CCAD113
:102FD00030F000427FF45CAF31F000437FF43CAF4F
:102FE0005FE700BF4FF0FF3C06E000BF4FF0010C71
:102FF00002E000BF4FF0010C4DF804CD4FEA400253
:103000004FEA41037FEA226C18BF7FEA236C11D09C
:1030100001B052EA530C18BF90EA010F58BFB2EB4F
:10302000030088BFC81738BF6FEAE17018BF40F0CF
:10303000010070477FEA226C02D15FEA402C05D183
:103040007FEA236CE4D15FEA412CE1D05DF8040B08
:10305000704700BF844608466146FFE70FB5FFF79B
:10306000C9FF002848BF10F1000F0FBD4DF808ED53
:10307000FFF7F4FF0CBF012000205DF808FB00BF44
:103080004DF808EDFFF7EAFF34BF012000205DF89E
:1030900008FB00BF4DF808EDFFF7E0FF94BF0120EB
:1030A00000205DF808FB00BF4DF808EDFFF7D2FFE8
:1030B00094BF012000205DF808FB00BF4DF808ED2B
:1030C000FFF7C8FF34BF012000205DF808FB00BFF8
:1030D0004FEA4002B2F1FE4F0FD34FF09E03B3EB25
:1030E00012620DD94FEA002343F0004310F0004F65
:1030F00023FA02F018BF404270474FF000007047BB
:1031000012F1610F01D1420205D110F0004008BF59
:103110006FF0004070474FF00000704742000ED241
:10312000B2F1FE4F0BD34FF09E03B3EB126209D402
:103130004FEA002343F0004323FA02F070474FF0B8
:103140000000704712F1610F01D1420202D14FF02D
:10315000FF3070474FF00000704700BF10B5054CBE
:10316000237833B9044B13B10448AFF30080012333
:10317000237010BD2004002000000000247002080D
:1031800008B5034B1BB103490348AFF3008008BDEA
:1031900000000000240400202470020880B483B0E2
:1031A00000AF78600B46FB701346BB707B68FA7803
:1031B0001A707B68BA785A707B6818460C37BD461F
:1031C00080BC704780B483B000AF78600B46FB7062
:1031D0007B68FA785A7000BF0C37BD4680BC7047D8
:1031E00080B483B000AF78600B46FB707B68FA78E0
:1031F0001A7000BF0C37BD4680BC704780B483B0E6
:1032000000AF78607B6818460C37BD4680BC7047BD
:1032100080B582B000AF78601BF032FE03461846DE
:103220000837BD4680BD80B483B000AF78600B46E0
:10323000FB707B68FA781A7000BF0C37BD4680BC03
:10324000704780B483B000AF786000BF0C37BD46D4
:1032500080BC704780B483B000AF786000BF0C378B
:10326000BD4680BC704780B483B000AF786000BFBB
:103270000C37BD4680BC704780B483B000AF786027
:10328000397000BF0C37BD4680BC704780B582B036
:1032900000AF78607B681B681B68786898470023DC
:1032A00018460837BD4680BD80B483B000AF786053
:1032B00039603B6818460C37BD4680BC704780B506
:1032C00082B000AF78607B681B681B68786898479D
:1032D00000BF0837BD4680BD80B483B000AF7860C2
:1032E00000BF0C37BD4680BC7047000080B400AF03
:1032F000024B1846BD4680BC704700BF1405002035
:1033000080B582B000AF7860FFF7F0FF0346184643
:10331000FFF77EFF034618460837BD4680BD80B4E0
:1033200083B000AF78607B681B79C3F30603DBB220
:1033300018460C37BD4680BC704780B483B000AFE0
:103340007860002318460C37BD4680BC704780B5B6
:1033500082B000AF7860642020F054FD00BF0837D1
:10336000BD4680BD80B584B000AF78603960124B37
:10337000FB603968114812F091FC0346002B05D020
:10338000F9680E4800F0E8FB034611E0FA68396876
:103390000A4812F095FC034683F00103DBB2002BD0
:1033A00001D0002304E00649044800F0EFFB0023AD
:1033B00018461037BD4680BD407002089047002077
:1033C0004870020880B582B000AF78603960396813
:1033D000034814F0B9FA034618460837BD4680BDC5
:1033E000C847002080B483B000AF7860044A7B688F
:1033F0001A607B6818460C37BD4680BC704700BF1A
:10340000E079020880B582B000AF786039607B68EF
:103410001846FFF7E7FF0B4A7B681A607B683A683B
:103420005A607B6800221A817B6801229A727B684D
:103430000022DA727B68FF221A737B68184608370D
:10344000BD4680BDA47C020880B483B000AF786024
:10345000054B1A463B1D19889B781180937000BF5D
:103460000C37BD4680BC70473000002080B582B06C
:1034700000AF786039607B681846FFF7B3FF054AF4
:103480007B681A607B683A685A607B681846083720
:10349000BD4680BDEC7C020880B483B000AF78608C
:1034A0000B46FB70FB78632B04D87B68FA7883F8B3
:1034B0002B2003E07B68002283F82B2000BF0C3711
:1034C000BD4680BC704780B483B000AF78600B46C7
:1034D000FB707B68FA7883F82E2000BF0C37BD465E
:1034E00080BC704780B582B000AF786039603968C1
:1034F000034814F029FA034618460837BD4680BD34
:10350000C847002080B500AF00F062FB00BF80BD5F
:1035100080B582B000AF78603960FFF7E7FE3868A9
:1035200000F05EFB034618460837BD4680BD00002C
:1035300080B582B000AF0346FB71FB7903F0020354
:10354000002B0CD0FB7903F00103002B07D10649B7
:10355000064813F053FE0649044813F04FFE00BF1F
:103560000837BD4680BD00BF50700208C447002028
:1035700048700208B0B584B000AF78607B685B78B3
:1035800003F00203002B2ED07B685B7803F001036D
:10359000002B28D17B689D1C07F10C03002204211D
:1035A0001846FFF7FBFD07F10C031846FFF726FE50
:1035B00003461C7820F006FC01460D4BA3FB0123BB
:1035C000DA081346DB0013449B00CA1AD3B2234423
:1035D000DBB219462846FFF703FE7B680233002161
:1035E0001846FFF7EFFD00BF1037BD46B0BD00BF66
:1035F000398EE33880B582B000AF03463960FB7185
:10360000FB79002B02D0012B06D009E03B685B78E8
:103610001846FFF78DFF03E03868FFF7ABFF00BFE8
:10362000002318460837BD4680BD80B582B000AF84
:103630000346FB71FB79012B02DC002B03DA08E067
:10364000022B03D005E00EF007FE02E00EF020FE94
:1036500000BF00BF0837BD4680BD80B582B000AF57
:103660000346FB71FB791846FFF7DFFF00BF083701
:10367000BD4680BD80B582B000AF0346FB710348F4
:1036800016F01AFA00BF0837BD4680BD94480020E6
:1036900080B483B000AF0346FB71084B1B68084A37
:1036A000934203D1054B074A1A6002E0034B044AD8
:1036B0001A6000BF0C37BD4680BC70470800002070
:1036C000911A0108ED55010880B582B000AF03469C
:1036D000FB7116F045F800BF0837BD4680BD80B4C9
:1036E00000AF00231846BD4680BC704780B500AFD0
:1036F00000F086FA0346184680BD80B400AF002370
:103700001846BD4680BC704780B500AF00F09AFDFA
:103710000346184680BD80B400AF00231846BD465E
:1037200080BC704780B500AF01F0AEF80346184684
:1037300080BD80B400AF01231846BD4680BC7047F1
:1037400080B582B000AF7860786801F0BFFB0346B7
:1037500018460837BD4680BD80B400AF0123184627
:10376000BD4680BC704780B582B000AF7860786895
:1037700001F0F4FE034618460837BD4680BD80B40C
:1037800000AF01231846BD4680BC704780B582B0AB
:1037900000AFB8803B1D184602F028FA03461846D1
:1037A0000837BD4680BD80B400AF01231846BD4632
:1037B00080BC704780B582B000AF78603B1D184672
:1037C00002F05CFD034618460837BD4680BD80B454
:1037D00000AF00231846BD4680BC704780B500AFDF
:1037E00003F094F80346184680BD80B400AF002370
:1037F0001846BD4680BC704780B500AF03F0A8FBFB
:103800000346184680BD80B400AF00231846BD466D
:1038100080BC704780B500AF03F0BCFE034618467D
:1038200080BD80B400AF01231846BD4680BC704700
:1038300080B582B000AF7860786804F0CDF90346B7
:1038400018460837BD4680BD80B400AF0023184637
:10385000BD4680BC704780B582B000AF78607868A4
:1038600004F002FD034618460837BD4680BD80B40B
:1038700000AF00231846BD4680BC704780B500AF3E
:1038800005F03AF80346184680BD000080B400AF4A
:10389000024B1B781846BD4680BC7047D57902089C
:1038A00080B582B000AF03463960FB71FB79DB0065
:1038B000054A134408221946386820F0D5FB00BF9A
:1038C0000837BD4680BD00BFAC79020880B500AFA7
:1038D0003648FFF701FD3648FFF7FEFC3548FFF795
:1038E000FBFC3548FFF7F8FC3448FFF7F5FC34489B
:1038F000FFF7F2FC3348FFF7EFFC3348FFF7ECFC2F
:103900003248FFF7E9FC3248FFF7D9FC3148FFF7AE
:10391000E3FC3148FFF7E0FC3048FFF7DDFC3048BE
:10392000FFF7DAFC2F48FFF7D7FC2F48FFF7D4FC4E
:103930002E48FFF7D1FC2E48FFF7CEFC2D48FFF7AD
:10394000CBFC2D48FFF7C8FC2C48FFF7C5FC2C48E2
:10395000FFF7C2FC2B48FFF7BFFC2B48FFF7BCFC6E
:103960002A48FFF7B9FC2A48FFF7B6FC2948FFF7B9
:10397000B3FC2948FFF7B0FC2848FFF7ADFC284806
:10398000FFF7AAFC2748FFF7A7FC2748FFF7A4FC8E
:103990002648FFF7A1FC2648FFF79EFC2548FFF7C5
:1039A0009BFC2548FFF798FC00BF80BD74470020B2
:1039B0008C470020444900206449002090470020A3
:1039C0007C470020804700208C480020F80400201D
:1039D00008050020280000202C000020E4470020DB
:1039E0003400002044000020C447002014000020C0
:1039F000B447002090480020500000209448002048
:103A00009848002054000020D8480020740000206E
:103A1000DC480020E048002074480020784800205E
:103A2000E44800203C040020684900208048002031
:103A300088480020780000206C49002080B582B0C2
:103A400000AF2D4B1B6818460CF0E0FFFF212B4800
:103A500013F0CFFFFF212A4814F069F8372015F042
:103A6000B3FC284B1B6803F00103002B05D126484B
:103A700014F05EF9234B01221A60244B224A1A608B
:103A8000082011F059FD0821214814F057FE4FF489
:103A90008061204818F078FD1F48FFF740FC03467E
:103AA00018460EF07BF81D4819F08CFA88211C4846
:103AB00019F080FC1B491C4815F094FB1B4B0A2293
:103AC0001A805F211A48FFF7E7FC3C211848FFF7EE
:103AD000FAFC1849184819F0AAFF184A3B1D126849
:103AE000114619800233120C1A707868FFF7ACFC8B
:103AF00000BF0837BD4680BDF079020824000020D1
:103B000028000020900400208C040020D8470020CA
:103B100034000020E448002074470020644900205D
:103B2000684900200805002080480020120000207D
:103B300098480020807902086C4900207C700208B7
:103B400080B500AF034B1B6818460CF087FF00BF21
:103B500080BD00BFF079020880B582B000AF786008
:103B600039600948FFF7CCFB0346396818461CF05A
:103B700040FE7868FFF7EBFB7868FFF7DEFB034653
:103B800018460837BD4680BD9804002080B582B035
:103B900000AF786039600D48FFF7B2FB0346396823
:103BA00018461CF075FD7868FFF7D1FB0748FFF752
:103BB000A7FB0346202118461CF086FD7868FFF716
:103BC000C6FB00BF0837BD4680BD00BF980400207B
:103BD00080B500AF05F036FA0346184680BD0000F8
:103BE00080B582B000AF786007220449786820F081
:103BF0003BFA072318460837BD4680BD807002088F
:103C000080B582B000AFB44805F03EFD0346FB71BD
:103C1000FFF765FD0346002B04D0FB79002B01D094
:103C2000012300E00023002B01D0FB7905E3AB4822
:103C300005F03AFD0346FB71FFF751FD0346002BEB
:103C400004D0FB79002B01D0012300E00023002BDE
:103C500001D0FB79F1E2A24805F036FD0346FB7185
:103C6000FFF73DFD0346002B04D0FB79002B01D06C
:103C7000012300E00023002B01D0FB79DDE299480D
:103C800005F032FD0346FB71FFF729FD0346002BCB
:103C900004D0FB79002B01D0012300E00023002B8E
:103CA00001D0FB79C9E2904805F02EFD0346FB7177
:103CB000FFF715FD0346002B04D0FB79002B01D044
:103CC000012300E00023002B01D0FB79B5E28748F7
:103CD00005F02AFD0346FB71FFF701FD0346002BAB
:103CE00004D0FB79002B01D0012300E00023002B3E
:103CF00001D0FB79A1E27E4805F026FD0346FB7169
:103D0000FFF7EDFC0346002B04D0FB79002B01D01C
:103D1000012300E00023002B01D0FB798DE27548E0
:103D200005F022FD0346FB71FFF7D9FC0346002B8B
:103D300004D0FB79002B01D0012300E00023002BED
:103D400001D0FB7979E26C4805F01EFD0346FB715A
:103D5000FFF7C5FC0346002B04D0FB79002B01D0F4
:103D6000012300E00023002B01D0FB7965E26348CA
:103D700005F01AFD0346FB71FFF7B1FC0346002B6B
:103D800004D0FB79002B01D0012300E00023002B9D
:103D900001D0FB7951E25A4805F016FD0346FB714C
:103DA000FFF79DFC0346002B04D0FB79002B01D0CC
:103DB000012300E00023002B01D0FB793DE25148B4
:103DC00005F012FD0346FB71FFF789FC0346002B4B
:103DD00004D0FB79002B01D0012300E00023002B4D
:103DE00001D0FB7929E2484805F00EFD0346FB713E
:103DF000FFF775FC0346002B04D0FB79002B01D0A4
:103E0000012300E00023002B01D0FB7915E23F489D
:103E100005F00AFD0346FB71FFF761FC0346002B2A
:103E200004D0FB79002B01D0012300E00023002BFC
:103E300001D0FB7901E2364805F006FD0346FB712F
:103E4000FFF74DFC0346002B04D0FB79002B01D07B
:103E5000012300E00023002B01D0FB79EDE12D4888
:103E600005F002FD0346FB71FFF739FC0346002B0A
:103E700004D0FB79002B01D0012300E00023002BAC
:103E800001D0FB79D9E1244805F0FEFC0346FB7123
:103E9000FFF725FC0346002B04D0FB79002B01D053
:103EA000012300E00023002B01D0FB79C5E11B4872
:103EB00005F0FAFC0346FB71FFF711FC0346002BEB
:103EC00004D0FB79002B01D0012300E00023002B5C
:103ED00026D0FB79B1E100BF744700208C47002059
:103EE0004449002064490020904700207C4700207E
:103EF000804700208C480020F8040020080500209E
:103F0000280000202C000020E4470020340000207E
:103F100044000020C447002014000020B4470020C3
:103F2000B34805F0D1FC0346FB71FFF7D8FB03460D
:103F3000002B04D0FB79002B01D0012300E00023EB
:103F4000002B01D0FB7978E1AA4805F0CDFC0346AF
:103F5000FB71FFF7C4FB0346002B04D0FB79002B59
:103F600001D0012300E00023002B01D0FB7964E1A4
:103F7000A14805F0C9FC0346FB71FFF7B0FB0346FF
:103F8000002B04D0FB79002B01D0012300E000239B
:103F9000002B01D0FB7950E1984805F0C5FC0346A1
:103FA000FB71FFF79CFB0346002B04D0FB79002B31
:103FB00001D0012300E00023002B01D0FB793CE17C
:103FC0008F4805F0C1FC0346FB71FFF788FB0346F1
:103FD000002B04D0FB79002B01D0012300E000234B
:103FE000002B01D0FB7928E1864805F0BDFC034693
:103FF000FB71FFF774FB0346002B04D0FB79002B09
:1040000001D0012300E00023002B01D0FB7914E153
:104010007D4805F0B9FC0346FB71FFF760FB0346E2
:10402000002B04D0FB79002B01D0012300E00023FA
:10403000002B01D0FB7900E1744805F0B5FC034684
:10404000FB71FFF74CFB0346002B04D0FB79002BE0
:1040500001D0012300E00023002B01D0FB79ECE02C
:104060006B4805F0B1FC0346FB71FFF738FB0346D4
:10407000002B04D0FB79002B01D0012300E00023AA
:10408000002B01D0FB79D8E0624805F0ADFC034677
:10409000FB71FFF724FB0346002B04D0FB79002BB8
:1040A00001D0012300E00023002B01D0FB79C4E004
:1040B000594805F0A9FC0346FB71FFF710FB0346C6
:1040C000002B04D0FB79002B01D0012300E000235A
:1040D000002B01D0FB79B0E0504805F0A5FC034669
:1040E000FB71FFF7FCFA0346002B04D0FB79002B91
:1040F00001D0012300E00023002B01D0FB799CE0DC
:10410000474805F0A1FC0346FB71FFF7E8FA0346B8
:10411000002B04D0FB79002B01D0012300E0002309
:10412000002B01D0FB7988E03E4805F09DFC03465A
:10413000FB71FFF7D4FA0346002B04D0FB79002B68
:1041400001D0012300E00023002B01D0FB7974E0B3
:10415000354805F099FC0346FB71FFF7C0FA0346AA
:10416000002B04D0FB79002B01D0012300E00023B9
:10417000002B01D0FB7960E02C4805F095FC03464C
:10418000FB71FFF7ACFA0346002B04D0FB79002B40
:1041900001D0012300E00023002B01D0FB794CE08B
:1041A000234805F091FC0346FB71FFF798FA03469C
:1041B000002B04D0FB79002B01D0012300E0002369
:1041C000002B01D0FB7938E01A4805F08DFC03463E
:1041D000FB71FFF784FA0346002B04D0FB79002B18
:1041E00001D0012300E00023002B25D0FB7924E03F
:1041F000904800205000002094480020984800205B
:1042000054000020D848002074000020DC48002022
:10421000E04800207448002078480020E44800204E
:104220003C04002068490020804800208848002085
:10423000780000206C490020FB7918460837BD46FD
:1042400080BD00BF80B582B000AFB44805F05CFC13
:104250000346FB71FFF751FA0346002B04D0FB79AC
:10426000002B01D0012300E00023002B01D0FB79BB
:1042700005E3AB4805F058FC0346FB71FFF73DFA38
:104280000346002B04D0FB79002B01D0012300E072
:104290000023002B01D0FB79F1E2A24805F054FC89
:1042A0000346FB71FFF729FA0346002B04D0FB7984
:1042B000002B01D0012300E00023002B01D0FB796B
:1042C000DDE2994805F050FC0346FB71FFF715FA53
:1042D0000346002B04D0FB79002B01D0012300E022
:1042E0000023002B01D0FB79C9E2904805F04CFC7B
:1042F0000346FB71FFF701FA0346002B04D0FB795C
:10430000002B01D0012300E00023002B01D0FB791A
:10431000B5E2874805F048FC0346FB71FFF7EDF96D
:104320000346002B04D0FB79002B01D0012300E0D1
:104330000023002B01D0FB79A1E27E4805F044FC6C
:104340000346FB71FFF7D9F90346002B04D0FB7934
:10435000002B01D0012300E00023002B01D0FB79CA
:104360008DE2754805F040FC0346FB71FFF7C5F987
:104370000346002B04D0FB79002B01D0012300E081
:104380000023002B01D0FB7979E26C4805F03CFC5E
:104390000346FB71FFF7B1F90346002B04D0FB790C
:1043A000002B01D0012300E00023002B01D0FB797A
:1043B00065E2634805F038FC0346FB71FFF79DF9A1
:1043C0000346002B04D0FB79002B01D0012300E031
:1043D0000023002B01D0FB7951E25A4805F034FC50
:1043E0000346FB71FFF789F90346002B04D0FB79E4
:1043F000002B01D0012300E00023002B01D0FB792A
:104400003DE2514805F030FC0346FB71FFF775F9BA
:104410000346002B04D0FB79002B01D0012300E0E0
:104420000023002B01D0FB7929E2484805F02CFC41
:104430000346FB71FFF761F90346002B04D0FB79BB
:10444000002B01D0012300E00023002B01D0FB79D9
:1044500015E23F4805F028FC0346FB71FFF74DF9D4
:104460000346002B04D0FB79002B01D0012300E090
:104470000023002B01D0FB7901E2364805F024FC33
:104480000346FB71FFF739F90346002B04D0FB7993
:10449000002B01D0012300E00023002B01D0FB7989
:1044A000EDE12D4805F020FC0346FB71FFF725F9EF
:1044B0000346002B04D0FB79002B01D0012300E040
:1044C0000023002B01D0FB79D9E1244805F01CFC26
:1044D0000346FB71FFF711F90346002B04D0FB796B
:1044E000002B01D0012300E00023002B01D0FB7939
:1044F000C5E11B4805F018FC0346FB71FFF7FDF80A
:104500000346002B04D0FB79002B01D0012300E0EF
:104510000023002B26D0FB79B1E100BF74470020B7
:104520008C47002044490020644900209047002027
:104530007C470020804700208C480020F8040020A1
:1045400008050020280000202C000020E44700205F
:104550003400002044000020C44700201400002044
:10456000B4470020B34805F0EFFB0346FB71FFF7AB
:10457000C4F80346002B04D0FB79002B01D00123A3
:1045800000E00023002B01D0FB7978E1AA4805F078
:10459000EBFB0346FB71FFF7B0F80346002B04D09A
:1045A000FB79002B01D0012300E00023002B01D078
:1045B000FB7964E1A14805F0E7FB0346FB71FFF7D7
:1045C0009CF80346002B04D0FB79002B01D001237B
:1045D00000E00023002B01D0FB7950E1984805F062
:1045E000E3FB0346FB71FFF788F80346002B04D07A
:1045F000FB79002B01D0012300E00023002B01D028
:10460000FB793CE18F4805F0DFFB0346FB71FFF7C8
:1046100074F80346002B04D0FB79002B01D0012352
:1046200000E00023002B01D0FB7928E1864805F04B
:10463000DBFB0346FB71FFF760F80346002B04D059
:10464000FB79002B01D0012300E00023002B01D0D7
:10465000FB7914E17D4805F0D7FB0346FB71FFF7BA
:104660004CF80346002B04D0FB79002B01D001232A
:1046700000E00023002B01D0FB7900E1744805F035
:10468000D3FB0346FB71FFF738F80346002B04D039
:10469000FB79002B01D0012300E00023002B01D087
:1046A000FB79ECE06B4805F0CFFB0346FB71FFF7AD
:1046B00024F80346002B04D0FB79002B01D0012302
:1046C00000E00023002B01D0FB79D8E0624805F020
:1046D000CBFB0346FB71FFF710F80346002B04D019
:1046E000FB79002B01D0012300E00023002B01D037
:1046F000FB79C4E0594805F0C7FB0346FB71FEF7A0
:10470000FCFF0346002B04D0FB79002B01D00123D2
:1047100000E00023002B01D0FB79B0E0504805F009
:10472000C3FB0346FB71FEF7E8FF0346002B04D0F2
:10473000FB79002B01D0012300E00023002B01D0E6
:10474000FB799CE0474805F0BFFB0346FB71FEF791
:10475000D4FF0346002B04D0FB79002B01D00123AA
:1047600000E00023002B01D0FB7988E03E4805F0F3
:10477000BBFB0346FB71FEF7C0FF0346002B04D0D2
:10478000FB79002B01D0012300E00023002B01D096
:10479000FB7974E0354805F0B7FB0346FB71FEF783
:1047A000ACFF0346002B04D0FB79002B01D0012382
:1047B00000E00023002B01D0FB7960E02C4805F0DD
:1047C000B3FB0346FB71FEF798FF0346002B04D0B2
:1047D000FB79002B01D0012300E00023002B01D046
:1047E000FB794CE0234805F0AFFB0346FB71FEF775
:1047F00084FF0346002B04D0FB79002B01D001235A
:1048000000E00023002B01D0FB7938E01A4805F0C6
:10481000ABFB0346FB71FEF770FF0346002B04D091
:10482000FB79002B01D0012300E00023002B25D0D1
:10483000FB7924E09048002050000020944800209C
:104840009848002054000020D84800207400002020
:10485000DC480020E0480020744800207848002010
:10486000E44800203C0400206849002080480020E3
:1048700088480020780000206C490020FB79184609
:104880000837BD4680BD00BF80B582B000AFB448D8
:1048900005F07AFB0346FB71FEF73DFF0346002B54
:1048A00004D0FB79002B01D0012300E00023002B72
:1048B00001D0FB7905E3AB4805F076FB0346FB71BD
:1048C000FEF729FF0346002B04D0FB79002B01D013
:1048D000012300E00023002B01D0FB79F1E2A24884
:1048E00005F072FB0346FB71FEF715FF0346002B34
:1048F00004D0FB79002B01D0012300E00023002B22
:1049000001D0FB79DDE2994805F06EFB0346FB71AF
:10491000FEF701FF0346002B04D0FB79002B01D0EA
:10492000012300E00023002B01D0FB79C9E290486D
:1049300005F06AFB0346FB71FEF7EDFE0346002B14
:1049400004D0FB79002B01D0012300E00023002BD1
:1049500001D0FB79B5E2874805F066FB0346FB71A1
:10496000FEF7D9FE0346002B04D0FB79002B01D0C3
:10497000012300E00023002B01D0FB79A1E27E4857
:1049800005F062FB0346FB71FEF7C5FE0346002BF4
:1049900004D0FB79002B01D0012300E00023002B81
:1049A00001D0FB798DE2754805F05EFB0346FB7193
:1049B000FEF7B1FE0346002B04D0FB79002B01D09B
:1049C000012300E00023002B01D0FB7979E26C4841
:1049D00005F05AFB0346FB71FEF79DFE0346002BD4
:1049E00004D0FB79002B01D0012300E00023002B31
:1049F00001D0FB7965E2634805F056FB0346FB7185
:104A0000FEF789FE0346002B04D0FB79002B01D072
:104A1000012300E00023002B01D0FB7951E25A482A
:104A200005F052FB0346FB71FEF775FE0346002BB3
:104A300004D0FB79002B01D0012300E00023002BE0
:104A400001D0FB793DE2514805F04EFB0346FB7176
:104A5000FEF761FE0346002B04D0FB79002B01D04A
:104A6000012300E00023002B01D0FB7929E2484814
:104A700005F04AFB0346FB71FEF74DFE0346002B93
:104A800004D0FB79002B01D0012300E00023002B90
:104A900001D0FB7915E23F4805F046FB0346FB7168
:104AA000FEF739FE0346002B04D0FB79002B01D022
:104AB000012300E00023002B01D0FB7901E23648FE
:104AC00005F042FB0346FB71FEF725FE0346002B73
:104AD00004D0FB79002B01D0012300E00023002B40
:104AE00001D0FB79EDE12D4805F03EFB0346FB715B
:104AF000FEF711FE0346002B04D0FB79002B01D0FA
:104B0000012300E00023002B01D0FB79D9E12448E8
:104B100005F03AFB0346FB71FEF7FDFD0346002B53
:104B200004D0FB79002B01D0012300E00023002BEF
:104B300001D0FB79C5E11B4805F036FB0346FB714C
:104B4000FEF7E9FD0346002B04D0FB79002B01D0D2
:104B5000012300E00023002B26D0FB79B1E100BF48
:104B6000744700208C4700204449002064490020FD
:104B7000904700207C470020804700208C48002080
:104B8000F804002008050020280000202C00002048
:104B9000E44700203400002044000020C4470020E7
:104BA00014000020B4470020B34805F00DFB034675
:104BB000FB71FEF7B0FD0346002B04D0FB79002B00
:104BC00001D0012300E00023002B01D0FB7978E124
:104BD000AA4805F009FB0346FB71FEF79CFD03465E
:104BE000002B04D0FB79002B01D0012300E000232F
:104BF000002B01D0FB7964E1A14805F005FB0346D9
:104C0000FB71FEF788FD0346002B04D0FB79002BD7
:104C100001D0012300E00023002B01D0FB7950E1FB
:104C2000984805F001FB0346FB71FEF774FD03464F
:104C3000002B04D0FB79002B01D0012300E00023DE
:104C4000002B01D0FB793CE18F4805F0FDFA0346CB
:104C5000FB71FEF760FD0346002B04D0FB79002BAF
:104C600001D0012300E00023002B01D0FB7928E1D3
:104C7000864805F0F9FA0346FB71FEF74CFD034642
:104C8000002B04D0FB79002B01D0012300E000238E
:104C9000002B01D0FB7914E17D4805F0F5FA0346BD
:104CA000FB71FEF738FD0346002B04D0FB79002B87
:104CB00001D0012300E00023002B01D0FB7900E1AB
:104CC000744805F0F1FA0346FB71FEF724FD034634
:104CD000002B04D0FB79002B01D0012300E000233E
:104CE000002B01D0FB79ECE06B4805F0EDFA0346B0
:104CF000FB71FEF710FD0346002B04D0FB79002B5F
:104D000001D0012300E00023002B01D0FB79D8E083
:104D1000624805F0E9FA0346FB71FEF7FCFC034626
:104D2000002B04D0FB79002B01D0012300E00023ED
:104D3000002B01D0FB79C4E0594805F0E5FA0346A1
:104D4000FB71FEF7E8FC0346002B04D0FB79002B37
:104D500001D0012300E00023002B01D0FB79B0E05B
:104D6000504805F0E1FA0346FB71FEF7D4FC034618
:104D7000002B04D0FB79002B01D0012300E000239D
:104D8000002B01D0FB799CE0474805F0DDFA034693
:104D9000FB71FEF7C0FC0346002B04D0FB79002B0F
:104DA00001D0012300E00023002B01D0FB7988E033
:104DB0003E4805F0D9FA0346FB71FEF7ACFC03460A
:104DC000002B04D0FB79002B01D0012300E000234D
:104DD000002B01D0FB7974E0354805F0D5FA034685
:104DE000FB71FEF798FC0346002B04D0FB79002BE7
:104DF00001D0012300E00023002B01D0FB7960E00B
:104E00002C4805F0D1FA0346FB71FEF784FC0346FB
:104E1000002B04D0FB79002B01D0012300E00023FC
:104E2000002B01D0FB794CE0234805F0CDFA034676
:104E3000FB71FEF770FC0346002B04D0FB79002BBE
:104E400001D0012300E00023002B01D0FB7938E0E2
:104E50001A4805F0C9FA0346FB71FEF75CFC0346ED
:104E6000002B04D0FB79002B01D0012300E00023AC
:104E7000002B25D0FB7924E0904800205000002032
:104E8000944800209848002054000020D848002072
:104E900074000020DC480020E04800207448002016
:104EA00078480020E44800203C04002068490020A5
:104EB0008048002088480020780000206C490020AD
:104EC000FB7918460837BD4680BD00BF80B584B069
:104ED00000AF78607968B24805F096FA0346FB7334
:104EE000FEF727FC0346002B04D0FB7B002B01D0F0
:104EF000012300E00023002B01D0FB7B25E3796830
:104F0000A84805F093FA0346FB73FEF712FC03462C
:104F1000002B04D0FB7B002B01D0012300E00023F9
:104F2000002B01D0FB7B10E379689F4805F090FAD5
:104F30000346FB73FEF7FDFB0346002B04D0FB7B0F
:104F4000002B01D0012300E00023002B01D0FB7BCC
:104F5000FBE27968954805F08DFA0346FB73FEF78E
:104F6000E8FB0346002B04D0FB7B002B01D0012380
:104F700000E00023002B01D0FB7BE6E279688C483F
:104F800005F08AFA0346FB73FEF7D3FB0346002BBA
:104F900004D0FB7B002B01D0012300E00023002B79
:104FA00001D0FB7BD1E27968824805F087FA03469D
:104FB000FB73FEF7BEFB0346002B04D0FB7B002BEC
:104FC00001D0012300E00023002B01D0FB7BBCE2D9
:104FD0007968794805F084FA0346FB73FEF7A9FB6C
:104FE0000346002B04D0FB7B002B01D0012300E003
:104FF0000023002B01D0FB7BA7E279686F4805F006
:1050000081FA0346FB73FEF794FB0346002B04D0A2
:10501000FB7B002B01D0012300E00023002B01D0FB
:10502000FB7B92E27968664805F07EFA0346FB73E3
:10503000FEF77FFB0346002B04D0FB7B002B01D047
:10504000012300E00023002B01D0FB7B7DE2796887
:105050005C4805F07BFA0346FB73FEF76AFB0346E8
:10506000002B04D0FB7B002B01D0012300E00023A8
:10507000002B01D0FB7B68E27968534805F078FA91
:105080000346FB73FEF755FB0346002B04D0FB7B66
:10509000002B01D0012300E00023002B01D0FB7B7B
:1050A00053E27968494805F075FA0346FB73FEF749
:1050B00040FB0346002B04D0FB7B002B01D00123D7
:1050C00000E00023002B01D0FB7B3EE279684048E2
:1050D00005F072FA0346FB73FEF72BFB0346002B29
:1050E00004D0FB7B002B01D0012300E00023002B28
:1050F00001D0FB7B29E27968364805F06FFA034658
:10510000FB73FEF716FB0346002B04D0FB7B002B42
:1051100001D0012300E00023002B01D0FB7B14E22F
:1051200079682D4805F06CFA0346FB73FEF701FB26
:105130000346002B04D0FB7B002B01D0012300E0B1
:105140000023002B01D0FB7BFFE17968234805F0A9
:1051500069FA0346FB73FEF7ECFA0346002B04D012
:10516000FB7B002B01D0012300E00023002B01D0AA
:10517000FB7BEAE179681A4805F066FA0346FB739F
:10518000FEF7D7FA0346002B04D0FB7B002B01D09F
:10519000012300E00023002B24D0FB7BD5E100BFDE
:1051A000744700208C4700204449002064490020B7
:1051B000904700207C470020804700208C4800203A
:1051C000F804002008050020280000202C00002002
:1051D000E44700203400002044000020C4470020A1
:1051E000140000207968B24805F040FA0346FB73CA
:1051F000FEF79FFA0346002B04D0FB7B002B01D067
:10520000012300E00023002B01D0FB7B9DE17968A6
:10521000A84805F03DFA0346FB73FEF78AFA0346F9
:10522000002B04D0FB7B002B01D0012300E00023E6
:10523000002B01D0FB7B88E179689F4805F03AFAA2
:105240000346FB73FEF775FA0346002B04D0FB7B85
:10525000002B01D0012300E00023002B01D0FB7BB9
:1052600073E17968954805F037FA0346FB73FEF75A
:1052700060FA0346002B04D0FB7B002B01D00123F6
:1052800000E00023002B01D0FB7B5EE179688C48B5
:1052900005F034FA0346FB73FEF74BFA0346002B86
:1052A00004D0FB7B002B01D0012300E00023002B66
:1052B00001D0FB7B49E17968824805F031FA034669
:1052C000FB73FEF736FA0346002B04D0FB7B002B62
:1052D00001D0012300E00023002B01D0FB7B34E14F
:1052E0007968794805F02EFA0346FB73FEF721FA38
:1052F0000346002B04D0FB7B002B01D0012300E0F0
:105300000023002B01D0FB7B1FE179686F4805F07B
:105310002BFA0346FB73FEF70CFA0346002B04D06E
:10532000FB7B002B01D0012300E00023002B01D0E8
:10533000FB7B0AE17968664805F028FA0346FB73AF
:10534000FEF7F7F90346002B04D0FB7B002B01D0BE
:10535000012300E00023002B01D0FB7BF5E07968FE
:105360005C4805F025FA0346FB73FEF7E2F90346B5
:10537000002B04D0FB7B002B01D0012300E0002395
:10538000002B01D0FB7BE0E07968534805F022FA5E
:105390000346FB73FEF7CDF90346002B04D0FB7BDD
:1053A000002B01D0012300E00023002B01D0FB7B68
:1053B000CBE07968494805F01FFA0346FB73FEF716
:1053C000B8F90346002B04D0FB7B002B01D001234E
:1053D00000E00023002B01D0FB7BB6E07968404859
:1053E00005F01CFA0346FB73FEF7A3F90346002BF6
:1053F00004D0FB7B002B01D0012300E00023002B15
:1054000001D0FB7BA1E07968364805F019FA034624
:10541000FB73FEF78EF90346002B04D0FB7B002BB9
:1054200001D0012300E00023002B01D0FB7B8CE0A6
:1054300079682D4805F016FA0346FB73FEF779F9F3
:105440000346002B04D0FB7B002B01D0012300E09E
:105450000023002B01D0FB7B77E07968234805F01F
:1054600013FA0346FB73FEF764F90346002B04D0DE
:10547000FB7B002B01D0012300E00023002B01D097
:10548000FB7B62E079681A4805F010FA0346FB736B
:10549000FEF74FF90346002B04D0FB7B002B01D015
:1054A000012300E00023002B24D0FB7B4DE000BF54
:1054B000B44700209048002050000020944800206D
:1054C0009848002054000020D84800207400002094
:1054D000DC480020E0480020744800207848002084
:1054E000E44800203C040020684900208048002057
:1054F000884800207968174805F0EAF90346FB73ED
:10550000FEF717F90346002B04D0FB7B002B01D0DC
:10551000012300E00023002B01D0FB7B15E079681C
:105520000D4805F0E7F90346FB73FEF702F9034661
:10553000002B04D0FB7B002B01D0012300E00023D3
:10554000002B01D0FB7B00E0FB7B18461037BD46EB
:1055500080BD00BF780000206C49002080B584B079
:1055600000AF78607968B24805F0D6F90346FB735E
:10557000FEF7F2F80346002B04D0FB7B002B01D092
:10558000012300E00023002B01D0FB7B25E3796899
:10559000A84805F0D3F90346FB73FEF7DDF8034690
:1055A000002B04D0FB7B002B01D0012300E0002363
:1055B000002B01D0FB7B10E379689F4805F0D0F900
:1055C0000346FB73FEF7C8F80346002B04D0FB7BB1
:1055D000002B01D0012300E00023002B01D0FB7B36
:1055E000FBE27968954805F0CDF90346FB73FEF7B9
:1055F000B3F80346002B04D0FB7B002B01D0012322
:1056000000E00023002B01D0FB7BE6E279688C48A8
:1056100005F0CAF90346FB73FEF79EF80346002B1C
:1056200004D0FB7B002B01D0012300E00023002BE2
:1056300001D0FB7BD1E27968824805F0C7F90346C7
:10564000FB73FEF789F80346002B04D0FB7B002B8D
:1056500001D0012300E00023002B01D0FB7BBCE242
:105660007968794805F0C4F90346FB73FEF774F8CE
:105670000346002B04D0FB7B002B01D0012300E06C
:105680000023002B01D0FB7BA7E279686F4805F06F
:10569000C1F90346FB73FEF75FF80346002B04D005
:1056A000FB7B002B01D0012300E00023002B01D065
:1056B000FB7B92E27968664805F0BEF90346FB730E
:1056C000FEF74AF80346002B04D0FB7B002B01D0E9
:1056D000012300E00023002B01D0FB7B7DE27968F1
:1056E0005C4805F0BBF90346FB73FEF735F803464B
:1056F000002B04D0FB7B002B01D0012300E0002312
:10570000002B01D0FB7B68E27968534805F0B8F9BB
:105710000346FB73FEF720F80346002B04D0FB7B07
:10572000002B01D0012300E00023002B01D0FB7BE4
:1057300053E27968494805F0B5F90346FB73FEF773
:105740000BF80346002B04D0FB7B002B01D0012378
:1057500000E00023002B01D0FB7B3EE2796840484B
:1057600005F0B2F90346FB73FDF7F6FF0346002B85
:1057700004D0FB7B002B01D0012300E00023002B91
:1057800001D0FB7B29E27968364805F0AFF9034682
:10579000FB73FDF7E1FF0346002B04D0FB7B002BDE
:1057A00001D0012300E00023002B01D0FB7B14E299
:1057B00079682D4805F0ACF90346FB73FDF7CCFF83
:1057C0000346002B04D0FB7B002B01D0012300E01B
:1057D0000023002B01D0FB7BFFE17968234805F013
:1057E000A9F90346FB73FDF7B7FF0346002B04D06E
:1057F000FB7B002B01D0012300E00023002B01D014
:10580000FB7BEAE179681A4805F0A6F90346FB73C9
:10581000FDF7A2FF0346002B04D0FB7B002B01D039
:10582000012300E00023002B24D0FB7BD5E100BF47
:10583000744700208C470020444900206449002020
:10584000904700207C470020804700208C480020A3
:10585000F804002008050020280000202C0000206B
:10586000E44700203400002044000020C44700200A
:10587000140000207968B24805F080F90346FB73F4
:10588000FDF76AFF0346002B04D0FB7B002B01D001
:10589000012300E00023002B01D0FB7B9DE1796810
:1058A000A84805F07DF90346FB73FDF755FF034655
:1058B000002B04D0FB7B002B01D0012300E0002350
:1058C000002B01D0FB7B88E179689F4805F07AF9CD
:1058D0000346FB73FDF740FF0346002B04D0FB7B20
:1058E000002B01D0012300E00023002B01D0FB7B23
:1058F00073E17968954805F077F90346FB73FDF786
:105900002BFF0346002B04D0FB7B002B01D001238F
:1059100000E00023002B01D0FB7B5EE179688C481E
:1059200005F074F90346FB73FDF716FF0346002BE1
:1059300004D0FB7B002B01D0012300E00023002BCF
:1059400001D0FB7B49E17968824805F071F9034693
:10595000FB73FDF701FF0346002B04D0FB7B002BFC
:1059600001D0012300E00023002B01D0FB7B34E1B8
:105970007968794805F06EF90346FB73FDF7ECFE94
:105980000346002B04D0FB7B002B01D0012300E059
:105990000023002B01D0FB7B1FE179686F4805F0E5
:1059A0006BF90346FB73FDF7D7FE0346002B04D0CB
:1059B000FB7B002B01D0012300E00023002B01D052
:1059C000FB7B0AE17968664805F068F90346FB73DA
:1059D000FDF7C2FE0346002B04D0FB7B002B01D059
:1059E000012300E00023002B01D0FB7BF5E0796868
:1059F0005C4805F065F90346FB73FDF7ADFE034611
:105A0000002B04D0FB7B002B01D0012300E00023FE
:105A1000002B01D0FB7BE0E07968534805F062F988
:105A20000346FB73FDF798FE0346002B04D0FB7B77
:105A3000002B01D0012300E00023002B01D0FB7BD1
:105A4000CBE07968494805F05FF90346FB73FDF741
:105A500083FE0346002B04D0FB7B002B01D00123E7
:105A600000E00023002B01D0FB7BB6E079684048C2
:105A700005F05CF90346FB73FDF76EFE0346002B51
:105A800004D0FB7B002B01D0012300E00023002B7E
:105A900001D0FB7BA1E07968364805F059F903464F
:105AA000FB73FDF759FE0346002B04D0FB7B002B54
:105AB00001D0012300E00023002B01D0FB7B8CE010
:105AC00079682D4805F056F90346FB73FDF744FE4F
:105AD0000346002B04D0FB7B002B01D0012300E008
:105AE0000023002B01D0FB7B77E07968234805F089
:105AF00053F90346FB73FDF72FFE0346002B04D03A
:105B0000FB7B002B01D0012300E00023002B01D000
:105B1000FB7B62E079681A4805F050F90346FB7395
:105B2000FDF71AFE0346002B04D0FB7B002B01D0AF
:105B3000012300E00023002B24D0FB7B4DE000BFBD
:105B4000B4470020904800205000002094480020D6
:105B50009848002054000020D848002074000020FD
:105B6000DC480020E04800207448002078480020ED
:105B7000E44800203C0400206849002080480020C0
:105B8000884800207968174805F02AF90346FB7316
:105B9000FDF7E2FD0346002B04D0FB7B002B01D078
:105BA000012300E00023002B01D0FB7B15E0796886
:105BB0000D4805F027F90346FB73FDF7CDFD0346BD
:105BC000002B04D0FB7B002B01D0012300E000233D
:105BD000002B01D0FB7B00E0FB7B18461037BD4655
:105BE00080BD00BF780000206C49002080B584B0E3
:105BF00000AF78607968B24805F016F90346FB7388
:105C0000FDF7BDFD0346002B04D0FB7B002B01D02C
:105C1000012300E00023002B01D0FB7B25E3796802
:105C2000A84805F013F90346FB73FDF7A8FD0346EA
:105C3000002B04D0FB7B002B01D0012300E00023CC
:105C4000002B01D0FB7B10E379689F4805F010F929
:105C50000346FB73FDF793FD0346002B04D0FB7B4B
:105C6000002B01D0012300E00023002B01D0FB7B9F
:105C7000FBE27968954805F00DF90346FB73FDF7E3
:105C80007EFD0346002B04D0FB7B002B01D00123BB
:105C900000E00023002B01D0FB7BE6E279688C4812
:105CA00005F00AF90346FB73FDF769FD0346002B77
:105CB00004D0FB7B002B01D0012300E00023002B4C
:105CC00001D0FB7BD1E27968824805F007F90346F1
:105CD000FB73FDF754FD0346002B04D0FB7B002B28
:105CE00001D0012300E00023002B01D0FB7BBCE2AC
:105CF0007968794805F004F90346FB73FDF73FFD29
:105D00000346002B04D0FB7B002B01D0012300E0D5
:105D10000023002B01D0FB7BA7E279686F4805F0D8
:105D200001F90346FB73FDF72AFD0346002B04D05F
:105D3000FB7B002B01D0012300E00023002B01D0CE
:105D4000FB7B92E27968664805F0FEF80346FB7338
:105D5000FDF715FD0346002B04D0FB7B002B01D083
:105D6000012300E00023002B01D0FB7B7DE279685A
:105D70005C4805F0FBF80346FB73FDF700FD0346A6
:105D8000002B04D0FB7B002B01D0012300E000237B
:105D9000002B01D0FB7B68E27968534805F0F8F8E6
:105DA0000346FB73FDF7EBFC0346002B04D0FB7BA3
:105DB000002B01D0012300E00023002B01D0FB7B4E
:105DC00053E27968494805F0F5F80346FB73FDF79F
:105DD000D6FC0346002B04D0FB7B002B01D0012313
:105DE00000E00023002B01D0FB7B3EE279684048B5
:105DF00005F0F2F80346FB73FDF7C1FC0346002BE8
:105E000004D0FB7B002B01D0012300E00023002BFA
:105E100001D0FB7B29E27968364805F0EFF80346AC
:105E2000FB73FDF7ACFC0346002B04D0FB7B002B7F
:105E300001D0012300E00023002B01D0FB7B14E202
:105E400079682D4805F0ECF80346FB73FDF797FCE5
:105E50000346002B04D0FB7B002B01D0012300E084
:105E60000023002B01D0FB7BFFE17968234805F07C
:105E7000E9F80346FB73FDF782FC0346002B04D0D0
:105E8000FB7B002B01D0012300E00023002B01D07D
:105E9000FB7BEAE179681A4805F0E6F80346FB73F4
:105EA000FDF76DFC0346002B04D0FB7B002B01D0DB
:105EB000012300E00023002B24D0FB7BD5E100BFB1
:105EC000744700208C47002044490020644900208A
:105ED000904700207C470020804700208C4800200D
:105EE000F804002008050020280000202C000020D5
:105EF000E44700203400002044000020C447002074
:105F0000140000207968B24805F0C0F80346FB731E
:105F1000FDF735FC0346002B04D0FB7B002B01D0A2
:105F2000012300E00023002B01D0FB7B9DE1796879
:105F3000A84805F0BDF80346FB73FDF720FC0346B7
:105F4000002B04D0FB7B002B01D0012300E00023B9
:105F5000002B01D0FB7B88E179689F4805F0BAF8F7
:105F60000346FB73FDF70BFC0346002B04D0FB7BC1
:105F7000002B01D0012300E00023002B01D0FB7B8C
:105F800073E17968954805F0B7F80346FB73FDF7B0
:105F9000F6FB0346002B04D0FB7B002B01D0012332
:105FA00000E00023002B01D0FB7B5EE179688C4888
:105FB00005F0B4F80346FB73FDF7E1FB0346002B45
:105FC00004D0FB7B002B01D0012300E00023002B39
:105FD00001D0FB7B49E17968824805F0B1F80346BE
:105FE000FB73FDF7CCFB0346002B04D0FB7B002B9F
:105FF00001D0012300E00023002B01D0FB7B34E122
:106000007968794805F0AEF80346FB73FDF7B7FBF6
:106010000346002B04D0FB7B002B01D0012300E0C2
:106020000023002B01D0FB7B1FE179686F4805F04E
:10603000ABF80346FB73FDF7A2FB0346002B04D02D
:10604000FB7B002B01D0012300E00023002B01D0BB
:10605000FB7B0AE17968664805F0A8F80346FB7304
:10606000FDF78DFB0346002B04D0FB7B002B01D0FA
:10607000012300E00023002B01D0FB7BF5E07968D1
:106080005C4805F0A5F80346FB73FDF778FB034673
:10609000002B04D0FB7B002B01D0012300E0002368
:1060A000002B01D0FB7BE0E07968534805F0A2F8B3
:1060B0000346FB73FDF763FB0346002B04D0FB7B19
:1060C000002B01D0012300E00023002B01D0FB7B3B
:1060D000CBE07968494805F09FF80346FB73FDF76C
:1060E0004EFB0346002B04D0FB7B002B01D0012389
:1060F00000E00023002B01D0FB7BB6E0796840482C
:1061000005F09CF80346FB73FDF739FB0346002BB3
:1061100004D0FB7B002B01D0012300E00023002BE7
:1061200001D0FB7BA1E07968364805F099F8034679
:10613000FB73FDF724FB0346002B04D0FB7B002BF5
:1061400001D0012300E00023002B01D0FB7B8CE079
:1061500079682D4805F096F80346FB73FDF70FFBB1
:106160000346002B04D0FB7B002B01D0012300E071
:106170000023002B01D0FB7B77E07968234805F0F2
:1061800093F80346FB73FDF7FAFA0346002B04D09D
:10619000FB7B002B01D0012300E00023002B01D06A
:1061A000FB7B62E079681A4805F090F80346FB73C0
:1061B000FDF7E5FA0346002B04D0FB7B002B01D052
:1061C000012300E00023002B24D0FB7B4DE000BF27
:1061D000B447002090480020500000209448002040
:1061E0009848002054000020D84800207400002067
:1061F000DC480020E0480020744800207848002057
:10620000E44800203C040020684900208048002029
:10621000884800207968174805F06AF80346FB7340
:10622000FDF7ADFA0346002B04D0FB7B002B01D019
:10623000012300E00023002B01D0FB7B15E07968EF
:106240000D4805F067F80346FB73FDF798FA03461F
:10625000002B04D0FB7B002B01D0012300E00023A6
:10626000002B01D0FB7B00E0FB7B18461037BD46BE
:1062700080BD00BF780000206C49002080B584B04C
:1062800000AF78607968B24805F056F80346FB73B2
:10629000FDF789FA0346002B04D0FB7B002B01D0CD
:1062A000012300E00023002B01D0FB7B25E379686C
:1062B000A84805F053F80346FB73FDF774FA03464C
:1062C000002B04D0FB7B002B01D0012300E0002336
:1062D000002B01D0FB7B10E379689F4805F050F854
:1062E0000346FB73FDF75FFA0346002B04D0FB7BEC
:1062F000002B01D0012300E00023002B01D0FB7B09
:10630000FBE27968954805F04DF80346FB73FDF70D
:106310004AFA0346002B04D0FB7B002B01D001235B
:1063200000E00023002B01D0FB7BE6E279688C487B
:1063300005F04AF80346FB73FDF735FA0346002BD8
:1063400004D0FB7B002B01D0012300E00023002BB5
:1063500001D0FB7BD1E27968824805F047F803461B
:10636000FB73FDF720FA0346002B04D0FB7B002BC8
:1063700001D0012300E00023002B01D0FB7BBCE215
:106380007968794805F044F80346FB73FDF70BFA8A
:106390000346002B04D0FB7B002B01D0012300E03F
:1063A0000023002B01D0FB7BA7E279686F4805F042
:1063B00041F80346FB73FDF7F6F90346002B04D0C2
:1063C000FB7B002B01D0012300E00023002B01D038
:1063D000FB7B92E27968664805F03EF80346FB7362
:1063E000FDF7E1F90346002B04D0FB7B002B01D025
:1063F000012300E00023002B01D0FB7B7DE27968C4
:106400005C4805F03BF80346FB73FDF7CCF9034607
:10641000002B04D0FB7B002B01D0012300E00023E4
:10642000002B01D0FB7B68E27968534805F038F80F
:106430000346FB73FDF7B7F90346002B04D0FB7B43
:10644000002B01D0012300E00023002B01D0FB7BB7
:1064500053E27968494805F035F80346FB73FDF7C8
:10646000A2F90346002B04D0FB7B002B01D00123B3
:1064700000E00023002B01D0FB7B3EE2796840481E
:1064800005F032F80346FB73FDF78DF90346002B48
:1064900004D0FB7B002B01D0012300E00023002B64
:1064A00001D0FB7B29E27968364805F02FF80346D6
:1064B000FB73FDF778F90346002B04D0FB7B002B20
:1064C00001D0012300E00023002B01D0FB7B14E26C
:1064D00079682D4805F02CF80346FB73FDF763F946
:1064E0000346002B04D0FB7B002B01D0012300E0EE
:1064F0000023002B01D0FB7BFFE17968234805F0E6
:1065000029F80346FB73FDF74EF90346002B04D030
:10651000FB7B002B01D0012300E00023002B01D0E6
:10652000FB7BEAE179681A4805F026F80346FB731D
:10653000FDF739F90346002B04D0FB7B002B01D07B
:10654000012300E00023002B24D0FB7BD5E100BF1A
:10655000744700208C4700204449002064490020F3
:10656000904700207C470020804700208C48002076
:10657000F804002008050020280000202C0000203E
:10658000E44700203400002044000020C4470020DD
:10659000140000207968B24805F000F80346FB7348
:1065A000FDF701F90346002B04D0FB7B002B01D043
:1065B000012300E00023002B01D0FB7B9DE17968E3
:1065C000A84804F0FDFF0346FB73FDF7ECF8034613
:1065D000002B04D0FB7B002B01D0012300E0002323
:1065E000002B01D0FB7B88E179689F4804F0FAFF1B
:1065F0000346FB73FDF7D7F80346002B04D0FB7B63
:10660000002B01D0012300E00023002B01D0FB7BF5
:1066100073E17968954804F0F7FF0346FB73FDF7D3
:10662000C2F80346002B04D0FB7B002B01D00123D2
:1066300000E00023002B01D0FB7B5EE179688C48F1
:1066400004F0F4FF0346FB73FDF7ADF80346002B9F
:1066500004D0FB7B002B01D0012300E00023002BA2
:1066600001D0FB7B49E17968824804F0F1FF0346E1
:10667000FB73FDF798F80346002B04D0FB7B002B3F
:1066800001D0012300E00023002B01D0FB7B34E18B
:106690007968794804F0EEFF0346FB73FDF783F851
:1066A0000346002B04D0FB7B002B01D0012300E02C
:1066B0000023002B01D0FB7B1FE179686F4804F0B9
:1066C000EBFF0346FB73FDF76EF80346002B04D087
:1066D000FB7B002B01D0012300E00023002B01D025
:1066E000FB7B0AE17968664804F0E8FF0346FB7328
:1066F000FDF759F80346002B04D0FB7B002B01D09B
:10670000012300E00023002B01D0FB7BF5E079683A
:106710005C4804F0E5FF0346FB73FDF744F80346CD
:10672000002B04D0FB7B002B01D0012300E00023D1
:10673000002B01D0FB7BE0E07968534804F0E2FFD6
:106740000346FB73FDF72FF80346002B04D0FB7BB9
:10675000002B01D0012300E00023002B01D0FB7BA4
:10676000CBE07968494804F0DFFF0346FB73FDF78F
:106770001AF80346002B04D0FB7B002B01D0012329
:1067800000E00023002B01D0FB7BB6E07968404895
:1067900004F0DCFF0346FB73FDF705F80346002B0E
:1067A00004D0FB7B002B01D0012300E00023002B51
:1067B00001D0FB7BA1E07968364804F0D9FF03469D
:1067C000FB73FCF7F0FF0346002B04D0FB7B002B90
:1067D00001D0012300E00023002B01D0FB7B8CE0E3
:1067E00079682D4804F0D6FF0346FB73FCF7DBFF06
:1067F0000346002B04D0FB7B002B01D0012300E0DB
:106800000023002B01D0FB7B77E07968234804F05C
:10681000D3FF0346FB73FCF7C6FF0346002B04D0EF
:10682000FB7B002B01D0012300E00023002B01D0D3
:10683000FB7B62E079681A4804F0D0FF0346FB73E3
:10684000FCF7B1FF0346002B04D0FB7B002B01D0EB
:10685000012300E00023002B24D0FB7B4DE000BF90
:10686000B4470020904800205000002094480020A9
:106870009848002054000020D848002074000020D0
:10688000DC480020E04800207448002078480020C0
:10689000E44800203C040020684900208048002093
:1068A000884800207968174804F0AAFF0346FB7364
:1068B000FCF779FF0346002B04D0FB7B002B01D0B3
:1068C000012300E00023002B01D0FB7B15E0796859
:1068D0000D4804F0A7FF0346FB73FCF764FF034673
:1068E000002B04D0FB7B002B01D0012300E0002310
:1068F000002B01D0FB7B00E0FB7B18461037BD4628
:1069000080BD00BF780000206C49002080B582B0B7
:1069100000AFB44804F098FF0346FB71FCF757FF43
:106920000346002B04D0FB79002B01D0012300E0AB
:106930000023002B01D0FB7905E3AB4804F094FF62
:106940000346FB71FCF743FF0346002B04D0FB79A1
:10695000002B01D0012300E00023002B01D0FB79A4
:10696000F1E2A24804F090FF0346FB71FCF72FFF11
:106970000346002B04D0FB79002B01D0012300E05B
:106980000023002B01D0FB79DDE2994804F08CFF55
:106990000346FB71FCF71BFF0346002B04D0FB7979
:1069A000002B01D0012300E00023002B01D0FB7954
:1069B000C9E2904804F088FF0346FB71FCF707FF2B
:1069C0000346002B04D0FB79002B01D0012300E00B
:1069D0000023002B01D0FB79B5E2874804F084FF47
:1069E0000346FB71FCF7F3FE0346002B04D0FB7952
:1069F000002B01D0012300E00023002B01D0FB7904
:106A0000A1E27E4804F080FF0346FB71FCF7DFFE45
:106A10000346002B04D0FB79002B01D0012300E0BA
:106A20000023002B01D0FB798DE2754804F07CFF38
:106A30000346FB71FCF7CBFE0346002B04D0FB7929
:106A4000002B01D0012300E00023002B01D0FB79B3
:106A500079E26C4804F078FF0346FB71FCF7B7FE5F
:106A60000346002B04D0FB79002B01D0012300E06A
:106A70000023002B01D0FB7965E2634804F074FF2A
:106A80000346FB71FCF7A3FE0346002B04D0FB7901
:106A9000002B01D0012300E00023002B01D0FB7963
:106AA00051E25A4804F070FF0346FB71FCF78FFE79
:106AB0000346002B04D0FB79002B01D0012300E01A
:106AC0000023002B01D0FB793DE2514804F06CFF1C
:106AD0000346FB71FCF77BFE0346002B04D0FB79D9
:106AE000002B01D0012300E00023002B01D0FB7913
:106AF00029E2484804F068FF0346FB71FCF767FE93
:106B00000346002B04D0FB79002B01D0012300E0C9
:106B10000023002B01D0FB7915E23F4804F064FF0D
:106B20000346FB71FCF753FE0346002B04D0FB79B0
:106B3000002B01D0012300E00023002B01D0FB79C2
:106B400001E2364804F060FF0346FB71FCF73FFEAC
:106B50000346002B04D0FB79002B01D0012300E079
:106B60000023002B01D0FB79EDE12D4804F05CFF00
:106B70000346FB71FCF72BFE0346002B04D0FB7988
:106B8000002B01D0012300E00023002B01D0FB7972
:106B9000D9E1244804F058FF0346FB71FCF717FEC7
:106BA0000346002B04D0FB79002B01D0012300E029
:106BB0000023002B01D0FB79C5E11B4804F054FFF2
:106BC0000346FB71FCF703FE0346002B04D0FB7960
:106BD000002B01D0012300E00023002B26D0FB79FD
:106BE000B1E100BF744700208C47002044490020D9
:106BF00064490020904700207C4700208047002007
:106C00008C480020F80400200805002028000020FF
:106C10002C000020E4470020340000204400002025
:106C2000C447002014000020B4470020B34804F0FB
:106C30002BFF0346FB71FCF7CAFD0346002B04D073
:106C4000FB79002B01D0012300E00023002B01D0B1
:106C5000FB7978E1AA4804F027FF0346FB71FCF7B3
:106C6000B6FD0346002B04D0FB79002B01D0012395
:106C700000E00023002B01D0FB7964E1A14804F07F
:106C800023FF0346FB71FCF7A2FD0346002B04D053
:106C9000FB79002B01D0012300E00023002B01D061
:106CA000FB7950E1984804F01FFF0346FB71FCF7A5
:106CB0008EFD0346002B04D0FB79002B01D001236D
:106CC00000E00023002B01D0FB793CE18F4804F069
:106CD0001BFF0346FB71FCF77AFD0346002B04D033
:106CE000FB79002B01D0012300E00023002B01D011
:106CF000FB7928E1864804F017FF0346FB71FCF797
:106D000066FD0346002B04D0FB79002B01D0012344
:106D100000E00023002B01D0FB7914E17D4804F052
:106D200013FF0346FB71FCF752FD0346002B04D012
:106D3000FB79002B01D0012300E00023002B01D0C0
:106D4000FB7900E1744804F00FFF0346FB71FCF788
:106D50003EFD0346002B04D0FB79002B01D001231C
:106D600000E00023002B01D0FB79ECE06B4804F03D
:106D70000BFF0346FB71FCF72AFD0346002B04D0F2
:106D8000FB79002B01D0012300E00023002B01D070
:106D9000FB79D8E0624804F007FF0346FB71FCF77B
:106DA00016FD0346002B04D0FB79002B01D00123F4
:106DB00000E00023002B01D0FB79C4E0594804F027
:106DC00003FF0346FB71FCF702FD0346002B04D0D2
:106DD000FB79002B01D0012300E00023002B01D020
:106DE000FB79B0E0504804F0FFFE0346FB71FCF76E
:106DF000EEFC0346002B04D0FB79002B01D00123CD
:106E000000E00023002B01D0FB799CE0474804F010
:106E1000FBFE0346FB71FCF7DAFC0346002B04D0B3
:106E2000FB79002B01D0012300E00023002B01D0CF
:106E3000FB7988E03E4804F0F7FE0346FB71FCF75F
:106E4000C6FC0346002B04D0FB79002B01D00123A4
:106E500000E00023002B01D0FB7974E0354804F0FA
:106E6000F3FE0346FB71FCF7B2FC0346002B04D093
:106E7000FB79002B01D0012300E00023002B01D07F
:106E8000FB7960E02C4804F0EFFE0346FB71FCF751
:106E90009EFC0346002B04D0FB79002B01D001237C
:106EA00000E00023002B01D0FB794CE0234804F0E4
:106EB000EBFE0346FB71FCF78AFC0346002B04D073
:106EC000FB79002B01D0012300E00023002B01D02F
:106ED000FB7938E01A4804F0E7FE0346FB71FCF743
:106EE00076FC0346002B04D0FB79002B01D0012354
:106EF00000E00023002B25D0FB7924E090480020FF
:106F000050000020944800209848002054000020A1
:106F1000D848002074000020DC480020E048002011
:106F20007448002078480020E44800203C040020F9
:106F30006849002080480020884800207800002010
:106F40006C490020FB7918460837BD4680BD00BF5C
:106F500080B582B000AFB44804F0B6FE0346FB71C2
:106F6000FCF743FC0346002B04D0FB79002B01D037
:106F7000012300E00023002B01D0FB7905E3AB489F
:106F800004F0B2FE0346FB71FCF72FFC0346002B16
:106F900004D0FB79002B01D0012300E00023002B5B
:106FA00001D0FB79F1E2A24804F0AEFE0346FB718A
:106FB000FCF71BFC0346002B04D0FB79002B01D00F
:106FC000012300E00023002B01D0FB79DDE299488A
:106FD00004F0AAFE0346FB71FCF707FC0346002BF6
:106FE00004D0FB79002B01D0012300E00023002B0B
:106FF00001D0FB79C9E2904804F0A6FE0346FB717C
:10700000FCF7F3FB0346002B04D0FB79002B01D0E7
:10701000012300E00023002B01D0FB79B5E2874873
:1070200004F0A2FE0346FB71FCF7DFFB0346002BD6
:1070300004D0FB79002B01D0012300E00023002BBA
:1070400001D0FB79A1E27E4804F09EFE0346FB716D
:10705000FCF7CBFB0346002B04D0FB79002B01D0BF
:10706000012300E00023002B01D0FB798DE275485D
:1070700004F09AFE0346FB71FCF7B7FB0346002BB6
:1070800004D0FB79002B01D0012300E00023002B6A
:1070900001D0FB7979E26C4804F096FE0346FB715F
:1070A000FCF7A3FB0346002B04D0FB79002B01D097
:1070B000012300E00023002B01D0FB7965E2634847
:1070C00004F092FE0346FB71FCF78FFB0346002B96
:1070D00004D0FB79002B01D0012300E00023002B1A
:1070E00001D0FB7951E25A4804F08EFE0346FB7151
:1070F000FCF77BFB0346002B04D0FB79002B01D06F
:10710000012300E00023002B01D0FB793DE2514830
:1071100004F08AFE0346FB71FCF767FB0346002B75
:1071200004D0FB79002B01D0012300E00023002BC9
:1071300001D0FB7929E2484804F086FE0346FB7142
:10714000FCF753FB0346002B04D0FB79002B01D046
:10715000012300E00023002B01D0FB7915E23F481A
:1071600004F082FE0346FB71FCF73FFB0346002B55
:1071700004D0FB79002B01D0012300E00023002B79
:1071800001D0FB7901E2364804F07EFE0346FB7134
:10719000FCF72BFB0346002B04D0FB79002B01D01E
:1071A000012300E00023002B01D0FB79EDE12D4805
:1071B00004F07AFE0346FB71FCF717FB0346002B35
:1071C00004D0FB79002B01D0012300E00023002B29
:1071D00001D0FB79D9E1244804F076FE0346FB7127
:1071E000FCF703FB0346002B04D0FB79002B01D0F6
:1071F000012300E00023002B01D0FB79C5E11B48EF
:1072000004F072FE0346FB71FCF7EFFA0346002B15
:1072100004D0FB79002B01D0012300E00023002BD8
:1072200026D0FB79B1E100BF744700208C470020D5
:107230004449002064490020904700207C470020FA
:10724000804700208C480020F8040020080500201A
:10725000280000202C000020E447002034000020FB
:1072600044000020C447002014000020B447002040
:10727000B34804F049FE0346FB71FCF7B6FA034637
:10728000002B04D0FB79002B01D0012300E0002368
:10729000002B01D0FB7978E1AA4804F045FE0346B3
:1072A000FB71FCF7A2FA0346002B04D0FB79002BFC
:1072B00001D0012300E00023002B01D0FB7964E121
:1072C000A14804F041FE0346FB71FCF78EFA034629
:1072D000002B04D0FB79002B01D0012300E0002318
:1072E000002B01D0FB7950E1984804F03DFE0346A5
:1072F000FB71FCF77AFA0346002B04D0FB79002BD4
:1073000001D0012300E00023002B01D0FB793CE1F8
:107310008F4804F039FE0346FB71FCF766FA03461A
:10732000002B04D0FB79002B01D0012300E00023C7
:10733000002B01D0FB7928E1864804F035FE034696
:10734000FB71FCF752FA0346002B04D0FB79002BAB
:1073500001D0012300E00023002B01D0FB7914E1D0
:107360007D4804F031FE0346FB71FCF73EFA03460C
:10737000002B04D0FB79002B01D0012300E0002377
:10738000002B01D0FB7900E1744804F02DFE034688
:10739000FB71FCF72AFA0346002B04D0FB79002B83
:1073A00001D0012300E00023002B01D0FB79ECE0A9
:1073B0006B4804F029FE0346FB71FCF716FA0346FE
:1073C000002B04D0FB79002B01D0012300E0002327
:1073D000002B01D0FB79D8E0624804F025FE03467B
:1073E000FB71FCF702FA0346002B04D0FB79002B5B
:1073F00001D0012300E00023002B01D0FB79C4E081
:10740000594804F021FE0346FB71FCF7EEF90346F0
:10741000002B04D0FB79002B01D0012300E00023D6
:10742000002B01D0FB79B0E0504804F01DFE03466C
:10743000FB71FCF7DAF90346002B04D0FB79002B33
:1074400001D0012300E00023002B01D0FB799CE058
:10745000474804F019FE0346FB71FCF7C6F90346E2
:10746000002B04D0FB79002B01D0012300E0002386
:10747000002B01D0FB7988E03E4804F015FE03465E
:10748000FB71FCF7B2F90346002B04D0FB79002B0B
:1074900001D0012300E00023002B01D0FB7974E030
:1074A000354804F011FE0346FB71FCF79EF90346D4
:1074B000002B04D0FB79002B01D0012300E0002336
:1074C000002B01D0FB7960E02C4804F00DFE034650
:1074D000FB71FCF78AF90346002B04D0FB79002BE3
:1074E00001D0012300E00023002B01D0FB794CE008
:1074F000234804F009FE0346FB71FCF776F90346C6
:10750000002B04D0FB79002B01D0012300E00023E5
:10751000002B01D0FB7938E01A4804F005FE034641
:10752000FB71FCF762F90346002B04D0FB79002BBA
:1075300001D0012300E00023002B25D0FB7924E0BB
:1075400090480020500000209448002098480020D7
:1075500054000020D848002074000020DC4800209F
:10756000E04800207448002078480020E4480020CB
:107570003C04002068490020804800208848002002
:10758000780000206C490020FB7918460837BD467A
:1075900080BD00BF80B582B000AFB44804F0D4FD18
:1075A0000346FB71FCF72FF90346002B04D0FB794F
:1075B000002B01D0012300E00023002B01D0FB7938
:1075C00005E3AB4804F0D0FD0346FB71FCF71BF963
:1075D0000346002B04D0FB79002B01D0012300E0EF
:1075E0000023002B01D0FB79F1E2A24804F0CCFD8E
:1075F0000346FB71FCF707F90346002B04D0FB7927
:10760000002B01D0012300E00023002B01D0FB79E7
:10761000DDE2994804F0C8FD0346FB71FCF7F3F87E
:107620000346002B04D0FB79002B01D0012300E09E
:107630000023002B01D0FB79C9E2904804F0C4FD7F
:107640000346FB71FCF7DFF80346002B04D0FB79FF
:10765000002B01D0012300E00023002B01D0FB7997
:10766000B5E2874804F0C0FD0346FB71FCF7CBF898
:107670000346002B04D0FB79002B01D0012300E04E
:107680000023002B01D0FB79A1E27E4804F0BCFD71
:107690000346FB71FCF7B7F80346002B04D0FB79D7
:1076A000002B01D0012300E00023002B01D0FB7947
:1076B0008DE2754804F0B8FD0346FB71FCF7A3F8B2
:1076C0000346002B04D0FB79002B01D0012300E0FE
:1076D0000023002B01D0FB7979E26C4804F0B4FD63
:1076E0000346FB71FCF78FF80346002B04D0FB79AF
:1076F000002B01D0012300E00023002B01D0FB79F7
:1077000065E2634804F0B0FD0346FB71FCF77BF8CB
:107710000346002B04D0FB79002B01D0012300E0AD
:107720000023002B01D0FB7951E25A4804F0ACFD54
:107730000346FB71FCF767F80346002B04D0FB7986
:10774000002B01D0012300E00023002B01D0FB79A6
:107750003DE2514804F0A8FD0346FB71FCF753F8E5
:107760000346002B04D0FB79002B01D0012300E05D
:107770000023002B01D0FB7929E2484804F0A4FD46
:107780000346FB71FCF73FF80346002B04D0FB795E
:10779000002B01D0012300E00023002B01D0FB7956
:1077A00015E23F4804F0A0FD0346FB71FCF72BF8FF
:1077B0000346002B04D0FB79002B01D0012300E00D
:1077C0000023002B01D0FB7901E2364804F09CFD38
:1077D0000346FB71FCF717F80346002B04D0FB7936
:1077E000002B01D0012300E00023002B01D0FB7906
:1077F000EDE12D4804F098FD0346FB71FCF703F81A
:107800000346002B04D0FB79002B01D0012300E0BC
:107810000023002B01D0FB79D9E1244804F094FD2A
:107820000346FB71FBF7EFFF0346002B04D0FB7907
:10783000002B01D0012300E00023002B01D0FB79B5
:10784000C5E11B4804F090FD0346FB71FBF7DBFF2D
:107850000346002B04D0FB79002B01D0012300E06C
:107860000023002B26D0FB79B1E100BF7447002034
:107870008C470020444900206449002090470020A4
:107880007C470020804700208C480020F80400201E
:1078900008050020280000202C000020E4470020DC
:1078A0003400002044000020C447002014000020C1
:1078B000B4470020B34804F067FD0346FB71FBF7B3
:1078C000A2FF0346002B04D0FB79002B01D001233B
:1078D00000E00023002B01D0FB7978E1AA4804F0F6
:1078E00063FD0346FB71FBF78EFF0346002B04D0BC
:1078F000FB79002B01D0012300E00023002B01D0F5
:10790000FB7964E1A14804F05FFD0346FB71FBF7DE
:107910007AFF0346002B04D0FB79002B01D0012312
:1079200000E00023002B01D0FB7950E1984804F0DF
:107930005BFD0346FB71FBF766FF0346002B04D09B
:10794000FB79002B01D0012300E00023002B01D0A4
:10795000FB793CE18F4804F057FD0346FB71FBF7D0
:1079600052FF0346002B04D0FB79002B01D00123EA
:1079700000E00023002B01D0FB7928E1864804F0C9
:1079800053FD0346FB71FBF73EFF0346002B04D07B
:10799000FB79002B01D0012300E00023002B01D054
:1079A000FB7914E17D4804F04FFD0346FB71FBF7C2
:1079B0002AFF0346002B04D0FB79002B01D00123C2
:1079C00000E00023002B01D0FB7900E1744804F0B3
:1079D0004BFD0346FB71FBF716FF0346002B04D05B
:1079E000FB79002B01D0012300E00023002B01D004
:1079F000FB79ECE06B4804F047FD0346FB71FBF7B5
:107A000002FF0346002B04D0FB79002B01D0012399
:107A100000E00023002B01D0FB79D8E0624804F09D
:107A200043FD0346FB71FBF7EEFE0346002B04D03B
:107A3000FB79002B01D0012300E00023002B01D0B3
:107A4000FB79C4E0594804F03FFD0346FB71FBF7A6
:107A5000DAFE0346002B04D0FB79002B01D0012372
:107A600000E00023002B01D0FB79B0E0504804F087
:107A70003BFD0346FB71FBF7C6FE0346002B04D01B
:107A8000FB79002B01D0012300E00023002B01D063
:107A9000FB799CE0474804F037FD0346FB71FBF798
:107AA000B2FE0346002B04D0FB79002B01D001234A
:107AB00000E00023002B01D0FB7988E03E4804F071
:107AC00033FD0346FB71FBF79EFE0346002B04D0FB
:107AD000FB79002B01D0012300E00023002B01D013
